{
  "abi": [
    {
      "type": "constructor",
      "inputs": [
        {
          "name": "_usdcToken",
          "type": "address",
          "internalType": "address"
        },
        {
          "name": "_tokenFactory",
          "type": "address",
          "internalType": "address"
        }
      ],
      "stateMutability": "nonpayable"
    },
    {
      "type": "function",
      "name": "getVaultAddress",
      "inputs": [
        {
          "name": "_hotelId",
          "type": "uint256",
          "internalType": "uint256"
        }
      ],
      "outputs": [
        {
          "name": "",
          "type": "address",
          "internalType": "address"
        }
      ],
      "stateMutability": "view"
    },
    {
      "type": "function",
      "name": "hotels",
      "inputs": [
        {
          "name": "",
          "type": "uint256",
          "internalType": "uint256"
        }
      ],
      "outputs": [
        {
          "name": "owner",
          "type": "address",
          "internalType": "address"
        },
        {
          "name": "name",
          "type": "string",
          "internalType": "string"
        },
        {
          "name": "vaultAddress",
          "type": "address",
          "internalType": "address"
        }
      ],
      "stateMutability": "view"
    },
    {
      "type": "function",
      "name": "isHotelRegistered",
      "inputs": [
        {
          "name": "_hotelId",
          "type": "uint256",
          "internalType": "uint256"
        }
      ],
      "outputs": [
        {
          "name": "",
          "type": "bool",
          "internalType": "bool"
        }
      ],
      "stateMutability": "view"
    },
    {
      "type": "function",
      "name": "isRegisteredHotel",
      "inputs": [
        {
          "name": "",
          "type": "uint256",
          "internalType": "uint256"
        }
      ],
      "outputs": [
        {
          "name": "",
          "type": "bool",
          "internalType": "bool"
        }
      ],
      "stateMutability": "view"
    },
    {
      "type": "function",
      "name": "nextHotelId",
      "inputs": [],
      "outputs": [
        {
          "name": "",
          "type": "uint256",
          "internalType": "uint256"
        }
      ],
      "stateMutability": "view"
    },
    {
      "type": "function",
      "name": "registerHotel",
      "inputs": [
        {
          "name": "_name",
          "type": "string",
          "internalType": "string"
        },
        {
          "name": "_tokenAmount",
          "type": "uint256",
          "internalType": "uint256"
        },
        {
          "name": "_usdcPrice",
          "type": "uint256",
          "internalType": "uint256"
        },
        {
          "name": "_totalMonth",
          "type": "uint256",
          "internalType": "uint256"
        },
        {
          "name": "_auctionDuration",
          "type": "uint256",
          "internalType": "uint256"
        }
      ],
      "outputs": [],
      "stateMutability": "nonpayable"
    },
    {
      "type": "function",
      "name": "tokenFactory",
      "inputs": [],
      "outputs": [
        {
          "name": "",
          "type": "address",
          "internalType": "contract LaLoTokenFactory"
        }
      ],
      "stateMutability": "view"
    },
    {
      "type": "function",
      "name": "usdcToken",
      "inputs": [],
      "outputs": [
        {
          "name": "",
          "type": "address",
          "internalType": "contract IERC20"
        }
      ],
      "stateMutability": "view"
    },
    {
      "type": "event",
      "name": "HotelRegistered",
      "inputs": [
        {
          "name": "hotelId",
          "type": "uint256",
          "indexed": false,
          "internalType": "uint256"
        },
        {
          "name": "name",
          "type": "string",
          "indexed": false,
          "internalType": "string"
        },
        {
          "name": "vaultAddress",
          "type": "address",
          "indexed": false,
          "internalType": "address"
        }
      ],
      "anonymous": false
    },
    {
      "type": "error",
      "name": "HotelNotRegistered",
      "inputs": []
    },
    {
      "type": "error",
      "name": "InvalidSellingRate",
      "inputs": [
        {
          "name": "tokenAmount",
          "type": "uint256",
          "internalType": "uint256"
        },
        {
          "name": "usdcPrice",
          "type": "uint256",
          "internalType": "uint256"
        }
      ]
    },
    {
      "type": "error",
      "name": "UnauthorizedHotelOwner",
      "inputs": []
    },
    {
      "type": "error",
      "name": "ZeroAmount",
      "inputs": []
    }
  ],
  "bytecode": {
    "object": "0x60806040523480156200001157600080fd5b50604051620043943803806200439483398181016040528101906200003791906200012a565b816000806101000a81548173ffffffffffffffffffffffffffffffffffffffff021916908373ffffffffffffffffffffffffffffffffffffffff16021790555080600160006101000a81548173ffffffffffffffffffffffffffffffffffffffff021916908373ffffffffffffffffffffffffffffffffffffffff160217905550505062000171565b600080fd5b600073ffffffffffffffffffffffffffffffffffffffff82169050919050565b6000620000f282620000c5565b9050919050565b6200010481620000e5565b81146200011057600080fd5b50565b6000815190506200012481620000f9565b92915050565b60008060408385031215620001445762000143620000c0565b5b6000620001548582860162000113565b9250506020620001678582860162000113565b9150509250929050565b61421380620001816000396000f3fe60806040523480156200001157600080fd5b5060043610620000945760003560e01c8063cd3382651162000063578063cd3382651462000133578063e6bd26a2146200016b578063e77772fe14620001a1578063ee5fd77d14620001c35762000094565b806311eac85514620000995780634cf4576214620000bb5780638e4412bb14620000db5780638e9d309414620000fd575b600080fd5b620000a3620001f9565b604051620000b2919062000801565b60405180910390f35b620000d96004803603810190620000d39190620009cf565b6200021d565b005b620000e562000508565b604051620000f4919062000a87565b60405180910390f35b6200011b600480360381019062000115919062000aa4565b6200050e565b6040516200012a919062000af3565b60405180910390f35b6200015160048036038101906200014b919062000aa4565b62000538565b604051620001629392919062000bc8565b60405180910390f35b62000189600480360381019062000183919062000aa4565b62000632565b60405162000198919062000c0c565b60405180910390f35b620001ab62000672565b604051620001ba919062000c4e565b60405180910390f35b620001e16004803603810190620001db919062000aa4565b62000698565b604051620001f0919062000af3565b60405180910390f35b60008054906101000a900473ffffffffffffffffffffffffffffffffffffffff1681565b60008414806200022d5750600083145b1562000265576040517f1f2a200500000000000000000000000000000000000000000000000000000000815260040160405180910390fd5b6000670de0b6b3a76400009050600084828762000283919062000c9a565b6200028f919062000d2a565b905085851115620002db5785856040517fdb6560fa000000000000000000000000000000000000000000000000000000008152600401620002d292919062000d62565b60405180910390fd5b60008060009054906101000a900473ffffffffffffffffffffffffffffffffffffffff16600160009054906101000a900473ffffffffffffffffffffffffffffffffffffffff16883385878a8d8b6040516200033790620006b8565b6200034b9998979695949392919062000d8f565b604051809103906000f08015801562000368573d6000803e3d6000fd5b50905060405180606001604052803373ffffffffffffffffffffffffffffffffffffffff1681526020018981526020018273ffffffffffffffffffffffffffffffffffffffff1681525060026000600454815260200190815260200160002060008201518160000160006101000a81548173ffffffffffffffffffffffffffffffffffffffff021916908373ffffffffffffffffffffffffffffffffffffffff16021790555060208201518160010190805190602001906200042c929190620006c6565b5060408201518160020160006101000a81548173ffffffffffffffffffffffffffffffffffffffff021916908373ffffffffffffffffffffffffffffffffffffffff160217905550905050600160036000600454815260200190815260200160002060006101000a81548160ff0219169083151502179055507f7e274df05619782a1a47dddfc2b9e1356c1eb97019c8d64c229da23cdbe4ec7b6004548983604051620004dc9392919062000e2e565b60405180910390a160046000815480929190620004f99062000e72565b91905055505050505050505050565b60045481565b60006003600083815260200190815260200160002060009054906101000a900460ff169050919050565b60026020528060005260406000206000915090508060000160009054906101000a900473ffffffffffffffffffffffffffffffffffffffff1690806001018054620005839062000eee565b80601f0160208091040260200160405190810160405280929190818152602001828054620005b19062000eee565b8015620006025780601f10620005d65761010080835404028352916020019162000602565b820191906000526020600020905b815481529060010190602001808311620005e457829003601f168201915b5050505050908060020160009054906101000a900473ffffffffffffffffffffffffffffffffffffffff16905083565b60006002600083815260200190815260200160002060020160009054906101000a900473ffffffffffffffffffffffffffffffffffffffff169050919050565b600160009054906101000a900473ffffffffffffffffffffffffffffffffffffffff1681565b60036020528060005260406000206000915054906101000a900460ff1681565b6132ba8062000f2483390190565b828054620006d49062000eee565b90600052602060002090601f016020900481019282620006f8576000855562000744565b82601f106200071357805160ff191683800117855562000744565b8280016001018555821562000744579182015b828111156200074357825182559160200191906001019062000726565b5b50905062000753919062000757565b5090565b5b808211156200077257600081600090555060010162000758565b5090565b600073ffffffffffffffffffffffffffffffffffffffff82169050919050565b6000819050919050565b6000620007c1620007bb620007b58462000776565b62000796565b62000776565b9050919050565b6000620007d582620007a0565b9050919050565b6000620007e982620007c8565b9050919050565b620007fb81620007dc565b82525050565b6000602082019050620008186000830184620007f0565b92915050565b6000604051905090565b600080fd5b600080fd5b600080fd5b600080fd5b6000601f19601f8301169050919050565b7f4e487b7100000000000000000000000000000000000000000000000000000000600052604160045260246000fd5b62000887826200083c565b810181811067ffffffffffffffff82111715620008a957620008a86200084d565b5b80604052505050565b6000620008be6200081e565b9050620008cc82826200087c565b919050565b600067ffffffffffffffff821115620008ef57620008ee6200084d565b5b620008fa826200083c565b9050602081019050919050565b82818337600083830152505050565b60006200092d6200092784620008d1565b620008b2565b9050828152602081018484840111156200094c576200094b62000837565b5b6200095984828562000907565b509392505050565b600082601f83011262000979576200097862000832565b5b81356200098b84826020860162000916565b91505092915050565b6000819050919050565b620009a98162000994565b8114620009b557600080fd5b50565b600081359050620009c9816200099e565b92915050565b600080600080600060a08688031215620009ee57620009ed62000828565b5b600086013567ffffffffffffffff81111562000a0f5762000a0e6200082d565b5b62000a1d8882890162000961565b955050602062000a3088828901620009b8565b945050604062000a4388828901620009b8565b935050606062000a5688828901620009b8565b925050608062000a6988828901620009b8565b9150509295509295909350565b62000a818162000994565b82525050565b600060208201905062000a9e600083018462000a76565b92915050565b60006020828403121562000abd5762000abc62000828565b5b600062000acd84828501620009b8565b91505092915050565b60008115159050919050565b62000aed8162000ad6565b82525050565b600060208201905062000b0a600083018462000ae2565b92915050565b600062000b1d8262000776565b9050919050565b62000b2f8162000b10565b82525050565b600081519050919050565b600082825260208201905092915050565b60005b8381101562000b7157808201518184015260208101905062000b54565b8381111562000b81576000848401525b50505050565b600062000b948262000b35565b62000ba0818562000b40565b935062000bb281856020860162000b51565b62000bbd816200083c565b840191505092915050565b600060608201905062000bdf600083018662000b24565b818103602083015262000bf3818562000b87565b905062000c04604083018462000b24565b949350505050565b600060208201905062000c23600083018462000b24565b92915050565b600062000c3682620007c8565b9050919050565b62000c488162000c29565b82525050565b600060208201905062000c65600083018462000c3d565b92915050565b7f4e487b7100000000000000000000000000000000000000000000000000000000600052601160045260246000fd5b600062000ca78262000994565b915062000cb48362000994565b9250817fffffffffffffffffffffffffffffffffffffffffffffffffffffffffffffffff048311821515161562000cf05762000cef62000c6b565b5b828202905092915050565b7f4e487b7100000000000000000000000000000000000000000000000000000000600052601260045260246000fd5b600062000d378262000994565b915062000d448362000994565b92508262000d575762000d5662000cfb565b5b828204905092915050565b600060408201905062000d79600083018562000a76565b62000d88602083018462000a76565b9392505050565b60006101208201905062000da7600083018c62000b24565b62000db6602083018b62000c3d565b62000dc5604083018a62000a76565b62000dd4606083018962000b24565b62000de3608083018862000a76565b62000df260a083018762000a76565b62000e0160c083018662000a76565b62000e1060e083018562000a76565b62000e2061010083018462000a76565b9a9950505050505050505050565b600060608201905062000e45600083018662000a76565b818103602083015262000e59818562000b87565b905062000e6a604083018462000b24565b949350505050565b600062000e7f8262000994565b91507fffffffffffffffffffffffffffffffffffffffffffffffffffffffffffffffff820362000eb45762000eb362000c6b565b5b600182019050919050565b7f4e487b7100000000000000000000000000000000000000000000000000000000600052602260045260246000fd5b6000600282049050600182168062000f0757607f821691505b60208210810362000f1d5762000f1c62000ebf565b5b5091905056fe6101a06040523480156200001257600080fd5b50604051620032ba380380620032ba8339818101604052810190620000389190620003fc565b6040518060400160405280600981526020017f4c614c6f5661756c7400000000000000000000000000000000000000000000008152506040518060400160405280600481526020017f4c4c4f56000000000000000000000000000000000000000000000000000000008152508160039080519060200190620000bc92919062000262565b508060049080519060200190620000d592919062000262565b50505060008873ffffffffffffffffffffffffffffffffffffffff16637e3b6d68896040518263ffffffff1660e01b8152600401620001159190620004ec565b6020604051808303816000875af115801562000135573d6000803e3d6000fd5b505050506040513d601f19601f820116820180604052508101906200015b919062000509565b90508973ffffffffffffffffffffffffffffffffffffffff1660808173ffffffffffffffffffffffffffffffffffffffff16815250508073ffffffffffffffffffffffffffffffffffffffff1660a08173ffffffffffffffffffffffffffffffffffffffff168152505086600860006101000a81548173ffffffffffffffffffffffffffffffffffffffff021916908373ffffffffffffffffffffffffffffffffffffffff1602179055508560c081815250508460e08181525050836101808181525050826101608181525050426101208181525050876101008181525050876005819055508161014081815250506000600781905550505050505050505050506200059f565b82805462000270906200056a565b90600052602060002090601f016020900481019282620002945760008555620002e0565b82601f10620002af57805160ff1916838001178555620002e0565b82800160010185558215620002e0579182015b82811115620002df578251825591602001919060010190620002c2565b5b509050620002ef9190620002f3565b5090565b5b808211156200030e576000816000905550600101620002f4565b5090565b600080fd5b600073ffffffffffffffffffffffffffffffffffffffff82169050919050565b6000620003448262000317565b9050919050565b620003568162000337565b81146200036257600080fd5b50565b60008151905062000376816200034b565b92915050565b6000620003898262000337565b9050919050565b6200039b816200037c565b8114620003a757600080fd5b50565b600081519050620003bb8162000390565b92915050565b6000819050919050565b620003d681620003c1565b8114620003e257600080fd5b50565b600081519050620003f681620003cb565b92915050565b60008060008060008060008060006101208a8c03121562000422576200042162000312565b5b6000620004328c828d0162000365565b9950506020620004458c828d01620003aa565b9850506040620004588c828d01620003e5565b97505060606200046b8c828d0162000365565b96505060806200047e8c828d01620003e5565b95505060a0620004918c828d01620003e5565b94505060c0620004a48c828d01620003e5565b93505060e0620004b78c828d01620003e5565b925050610100620004cb8c828d01620003e5565b9150509295985092959850929598565b620004e681620003c1565b82525050565b6000602082019050620005036000830184620004db565b92915050565b60006020828403121562000522576200052162000312565b5b6000620005328482850162000365565b91505092915050565b7f4e487b7100000000000000000000000000000000000000000000000000000000600052602260045260246000fd5b600060028204905060018216806200058357607f821691505b6020821081036200059957620005986200053b565b5b50919050565b60805160a05160c05160e0516101005161012051610140516101605161018051612bfb620006bf60003960008181610d7f01528181610da701528181610dee0152818161160d015281816118e4015261190c015260008181610ed301526116fb0152600081816107f7015261100b015260008181610d370152818161102c01526116d701526000818161084b01526115df01526000818161118701526114eb0152600081816108c801526111a80152600081816108730152818161092c01528181610c5101528181610e2901528181610f2d015281816110a2015281816111e2015281816113c2015281816117b201526119b601526000818161081b01528181610ab401528181610baf015281816112c70152611b6f0152612bfb6000f3fe608060405234801561001057600080fd5b50600436106102275760003560e01c806370a0823111610130578063a457c2d7116100b8578063dd62ed3e1161007c578063dd62ed3e1461069c578063e0b669c6146106cc578063e35568cb146106ea578063e6c6f12c14610708578063f3fef3a31461072457610227565b8063a457c2d7146105e2578063a79a7f6d14610612578063a9059cbb14610630578063b30930cc14610660578063bf2d9e0b1461067e57610227565b806395d89b41116100ff57806395d89b411461054c578063963f7cb51461056a5780639b4f19c6146105885780639f065906146105a6578063a00e66d7146105c457610227565b806370a08231146104b057806371ca337d146104e057806384fb20a0146104fe5780638da5cb5b1461052e57610227565b8063313ce567116101b357806347e7ef241161018257806347e7ef24146103fa578063578dae4f146104165780635edf9e61146104345780635f515226146104645780636945b1231461049457610227565b8063313ce5671461035e578063395093511461037c5780633cf7dcba146103ac5780633f795cc0146103ca57610227565b806318160ddd116101fa57806318160ddd146102b65780631d158d1a146102d457806321df0da7146102f257806323b872dd146103105780632c4e722e1461034057610227565b806306fdde031461022c578063095ea7b31461024a5780630cbf54c81461027a57806311eac85514610298575b600080fd5b610234610740565b60405161024191906121c4565b60405180910390f35b610264600480360381019061025f919061227f565b6107d2565b60405161027191906122da565b60405180910390f35b6102826107f5565b60405161028f9190612304565b60405180910390f35b6102a0610819565b6040516102ad919061237e565b60405180910390f35b6102be61083d565b6040516102cb9190612304565b60405180910390f35b6102dc610847565b6040516102e99190612304565b60405180910390f35b6102fa61086f565b60405161030791906123ba565b60405180910390f35b61032a600480360381019061032591906123d5565b610897565b60405161033791906122da565b60405180910390f35b6103486108c6565b6040516103559190612304565b60405180910390f35b6103666108ea565b6040516103739190612444565b60405180910390f35b6103966004803603810190610391919061227f565b6108f3565b6040516103a391906122da565b60405180910390f35b6103b461092a565b6040516103c191906123ba565b60405180910390f35b6103e460048036038101906103df919061245f565b61094e565b6040516103f19190612304565b60405180910390f35b610414600480360381019061040f919061227f565b610997565b005b61041e610bab565b60405161042b9190612304565b60405180910390f35b61044e6004803603810190610449919061245f565b610c4c565b60405161045b9190612304565b60405180910390f35b61047e6004803603810190610479919061245f565b610f29565b60405161048b9190612304565b60405180910390f35b6104ae60048036038101906104a9919061227f565b610fcc565b005b6104ca60048036038101906104c5919061245f565b6114a1565b6040516104d79190612304565b60405180910390f35b6104e86114e9565b6040516104f59190612304565b60405180910390f35b6105186004803603810190610513919061245f565b61150d565b6040516105259190612304565b60405180910390f35b610536611525565b604051610543919061249b565b60405180910390f35b61055461154b565b60405161056191906121c4565b60405180910390f35b6105726115dd565b60405161057f9190612304565b60405180910390f35b610590611601565b60405161059d9190612304565b60405180910390f35b6105ae61160b565b6040516105bb9190612304565b60405180910390f35b6105cc61162f565b6040516105d99190612304565b60405180910390f35b6105fc60048036038101906105f7919061227f565b611635565b60405161060991906122da565b60405180910390f35b61061a6116ac565b6040516106279190612304565b60405180910390f35b61064a6004803603810190610645919061227f565b6116b2565b60405161065791906122da565b60405180910390f35b6106686116d5565b6040516106759190612304565b60405180910390f35b6106866116f9565b6040516106939190612304565b60405180910390f35b6106b660048036038101906106b191906124b6565b61171d565b6040516106c39190612304565b60405180910390f35b6106d46117a4565b6040516106e19190612304565b60405180910390f35b6106f26117ae565b6040516106ff9190612304565b60405180910390f35b610722600480360381019061071d919061227f565b61184f565b005b61073e6004803603810190610739919061227f565b611975565b005b60606003805461074f90612525565b80601f016020809104026020016040519081016040528092919081815260200182805461077b90612525565b80156107c85780601f1061079d576101008083540402835291602001916107c8565b820191906000526020600020905b8154815290600101906020018083116107ab57829003601f168201915b5050505050905090565b6000806107dd611c4e565b90506107ea818585611c56565b600191505092915050565b7f000000000000000000000000000000000000000000000000000000000000000081565b7f000000000000000000000000000000000000000000000000000000000000000081565b6000600254905090565b60007f0000000000000000000000000000000000000000000000000000000000000000905090565b60007f0000000000000000000000000000000000000000000000000000000000000000905090565b6000806108a2611c4e565b90506108af858285611e1f565b6108ba858585611eab565b60019150509392505050565b7f000000000000000000000000000000000000000000000000000000000000000081565b60006012905090565b6000806108fe611c4e565b905061091f818585610910858961171d565b61091a9190612585565b611c56565b600191505092915050565b7f000000000000000000000000000000000000000000000000000000000000000081565b6000600660008373ffffffffffffffffffffffffffffffffffffffff1673ffffffffffffffffffffffffffffffffffffffff168152602001908152602001600020549050919050565b81600860009054906101000a900473ffffffffffffffffffffffffffffffffffffffff1673ffffffffffffffffffffffffffffffffffffffff168173ffffffffffffffffffffffffffffffffffffffff1614610a2a57806040517f245aecd3000000000000000000000000000000000000000000000000000000008152600401610a21919061249b565b60405180910390fd5b8160008103610a65576040517f1f2a200500000000000000000000000000000000000000000000000000000000815260040160405180910390fd5b600554831115610ab057600554836040517fdf6079b7000000000000000000000000000000000000000000000000000000008152600401610aa79291906125db565b60405180910390fd5b60007f000000000000000000000000000000000000000000000000000000000000000073ffffffffffffffffffffffffffffffffffffffff166323b872dd8630876040518463ffffffff1660e01b8152600401610b0f93929190612604565b6020604051808303816000875af1158015610b2e573d6000803e3d6000fd5b505050506040513d601f19601f82011682018060405250810190610b529190612667565b905080610b8b576040517f90b8ec1800000000000000000000000000000000000000000000000000000000815260040160405180910390fd5b8360056000828254610b9d9190612694565b925050819055505050505050565b60007f000000000000000000000000000000000000000000000000000000000000000073ffffffffffffffffffffffffffffffffffffffff166370a08231306040518263ffffffff1660e01b8152600401610c06919061249b565b602060405180830381865afa158015610c23573d6000803e3d6000fd5b505050506040513d601f19601f82011682018060405250810190610c4791906126dd565b905090565b6000807f000000000000000000000000000000000000000000000000000000000000000073ffffffffffffffffffffffffffffffffffffffff166370a08231846040518263ffffffff1660e01b8152600401610ca8919061249b565b602060405180830381865afa158015610cc5573d6000803e3d6000fd5b505050506040513d601f19601f82011682018060405250810190610ce991906126dd565b90506000600660008573ffffffffffffffffffffffffffffffffffffffff1673ffffffffffffffffffffffffffffffffffffffff168152602001908152602001600020549050600062278d007f000000000000000000000000000000000000000000000000000000000000000042610d619190612694565b610d6b9190612739565b905060075481610d7b9190612585565b90507f0000000000000000000000000000000000000000000000000000000000000000811115610dc9577f000000000000000000000000000000000000000000000000000000000000000090505b6000670de0b6b3a7640000905060006ec097ce7bc90715b34b9f1000000000905060007f00000000000000000000000000000000000000000000000000000000000000008385610e19919061276a565b610e239190612739565b905060007f000000000000000000000000000000000000000000000000000000000000000073ffffffffffffffffffffffffffffffffffffffff166318160ddd6040518163ffffffff1660e01b8152600401602060405180830381865afa158015610e92573d6000803e3d6000fd5b505050506040513d601f19601f82011682018060405250810190610eb691906126dd565b8488610ec2919061276a565b610ecc9190612739565b90508583827f000000000000000000000000000000000000000000000000000000000000000085610efd919061276a565b610f07919061276a565b610f119190612739565b610f1b9190612694565b975050505050505050919050565b60007f000000000000000000000000000000000000000000000000000000000000000073ffffffffffffffffffffffffffffffffffffffff166370a08231836040518263ffffffff1660e01b8152600401610f84919061249b565b602060405180830381865afa158015610fa1573d6000803e3d6000fd5b505050506040513d601f19601f82011682018060405250810190610fc591906126dd565b9050919050565b8060008103611007576040517f1f2a200500000000000000000000000000000000000000000000000000000000815260040160405180910390fd5b60007f00000000000000000000000000000000000000000000000000000000000000007f00000000000000000000000000000000000000000000000000000000000000006110559190612585565b90504281101561109e5780426040517f6e285ad80000000000000000000000000000000000000000000000000000000081526004016110959291906125db565b60405180910390fd5b60007f000000000000000000000000000000000000000000000000000000000000000073ffffffffffffffffffffffffffffffffffffffff166370a08231306040518263ffffffff1660e01b81526004016110f9919061249b565b602060405180830381865afa158015611116573d6000803e3d6000fd5b505050506040513d601f19601f8201168201806040525081019061113a91906126dd565b9050808411156111835780846040517ff984d91400000000000000000000000000000000000000000000000000000000815260040161117a9291906125db565b60405180910390fd5b60007f00000000000000000000000000000000000000000000000000000000000000007f0000000000000000000000000000000000000000000000000000000000000000866111d2919061276a565b6111dc9190612739565b905060007f000000000000000000000000000000000000000000000000000000000000000073ffffffffffffffffffffffffffffffffffffffff166370a08231306040518263ffffffff1660e01b8152600401611239919061249b565b602060405180830381865afa158015611256573d6000803e3d6000fd5b505050506040513d601f19601f8201168201806040525081019061127a91906126dd565b9050808211156112c35780826040517ff984d9140000000000000000000000000000000000000000000000000000000081526004016112ba9291906125db565b60405180910390fd5b60007f000000000000000000000000000000000000000000000000000000000000000073ffffffffffffffffffffffffffffffffffffffff166323b872dd89600860009054906101000a900473ffffffffffffffffffffffffffffffffffffffff168a6040518463ffffffff1660e01b815260040161134493929190612604565b6020604051808303816000875af1158015611363573d6000803e3d6000fd5b505050506040513d601f19601f820116820180604052508101906113879190612667565b9050806113c0576040517f90b8ec1800000000000000000000000000000000000000000000000000000000815260040160405180910390fd5b7f000000000000000000000000000000000000000000000000000000000000000073ffffffffffffffffffffffffffffffffffffffff1663a9059cbb89856040518363ffffffff1660e01b815260040161141b9291906127c4565b6020604051808303816000875af115801561143a573d6000803e3d6000fd5b505050506040513d601f19601f8201168201806040525081019061145e9190612667565b905080611497576040517f90b8ec1800000000000000000000000000000000000000000000000000000000815260040160405180910390fd5b5050505050505050565b60008060008373ffffffffffffffffffffffffffffffffffffffff1673ffffffffffffffffffffffffffffffffffffffff168152602001908152602001600020549050919050565b7f000000000000000000000000000000000000000000000000000000000000000081565b60066020528060005260406000206000915090505481565b600860009054906101000a900473ffffffffffffffffffffffffffffffffffffffff1681565b60606004805461155a90612525565b80601f016020809104026020016040519081016040528092919081815260200182805461158690612525565b80156115d35780601f106115a8576101008083540402835291602001916115d3565b820191906000526020600020905b8154815290600101906020018083116115b657829003601f168201915b5050505050905090565b7f000000000000000000000000000000000000000000000000000000000000000081565b6000600754905090565b7f000000000000000000000000000000000000000000000000000000000000000081565b60075481565b600080611640611c4e565b9050600061164e828661171d565b905083811015611693576040517f08c379a000000000000000000000000000000000000000000000000000000000815260040161168a9061285f565b60405180910390fd5b6116a08286868403611c56565b60019250505092915050565b60055481565b6000806116bd611c4e565b90506116ca818585611eab565b600191505092915050565b7f000000000000000000000000000000000000000000000000000000000000000081565b7f000000000000000000000000000000000000000000000000000000000000000081565b6000600160008473ffffffffffffffffffffffffffffffffffffffff1673ffffffffffffffffffffffffffffffffffffffff16815260200190815260200160002060008373ffffffffffffffffffffffffffffffffffffffff1673ffffffffffffffffffffffffffffffffffffffff16815260200190815260200160002054905092915050565b6000600554905090565b60007f000000000000000000000000000000000000000000000000000000000000000073ffffffffffffffffffffffffffffffffffffffff166370a08231306040518263ffffffff1660e01b8152600401611809919061249b565b602060405180830381865afa158015611826573d6000803e3d6000fd5b505050506040513d601f19601f8201168201806040525081019061184a91906126dd565b905090565b81600860009054906101000a900473ffffffffffffffffffffffffffffffffffffffff1673ffffffffffffffffffffffffffffffffffffffff168173ffffffffffffffffffffffffffffffffffffffff16146118e257806040517f245aecd30000000000000000000000000000000000000000000000000000000081526004016118d9919061249b565b60405180910390fd5b7f0000000000000000000000000000000000000000000000000000000000000000821115611969577f0000000000000000000000000000000000000000000000000000000000000000826040517fe100b5e30000000000000000000000000000000000000000000000000000000081526004016119609291906125db565b60405180910390fd5b81600781905550505050565b80600081036119b0576040517f1f2a200500000000000000000000000000000000000000000000000000000000815260040160405180910390fd5b828260007f000000000000000000000000000000000000000000000000000000000000000073ffffffffffffffffffffffffffffffffffffffff166370a08231846040518263ffffffff1660e01b8152600401611a0d919061249b565b602060405180830381865afa158015611a2a573d6000803e3d6000fd5b505050506040513d601f19601f82011682018060405250810190611a4e91906126dd565b905060003073ffffffffffffffffffffffffffffffffffffffff16635edf9e61856040518263ffffffff1660e01b8152600401611a8b919061249b565b602060405180830381865afa158015611aa8573d6000803e3d6000fd5b505050506040513d601f19601f82011682018060405250810190611acc91906126dd565b905080831115611b155780836040517fd217735c000000000000000000000000000000000000000000000000000000008152600401611b0c9291906125db565b60405180910390fd5b85600660008973ffffffffffffffffffffffffffffffffffffffff1673ffffffffffffffffffffffffffffffffffffffff1681526020019081526020016000206000828254611b649190612585565b9250508190555060007f000000000000000000000000000000000000000000000000000000000000000073ffffffffffffffffffffffffffffffffffffffff1663a9059cbb89896040518363ffffffff1660e01b8152600401611bc89291906127c4565b6020604051808303816000875af1158015611be7573d6000803e3d6000fd5b505050506040513d601f19601f82011682018060405250810190611c0b9190612667565b905080611c44576040517f90b8ec1800000000000000000000000000000000000000000000000000000000815260040160405180910390fd5b5050505050505050565b600033905090565b600073ffffffffffffffffffffffffffffffffffffffff168373ffffffffffffffffffffffffffffffffffffffff1603611cc5576040517f08c379a0000000000000000000000000000000000000000000000000000000008152600401611cbc906128f1565b60405180910390fd5b600073ffffffffffffffffffffffffffffffffffffffff168273ffffffffffffffffffffffffffffffffffffffff1603611d34576040517f08c379a0000000000000000000000000000000000000000000000000000000008152600401611d2b90612983565b60405180910390fd5b80600160008573ffffffffffffffffffffffffffffffffffffffff1673ffffffffffffffffffffffffffffffffffffffff16815260200190815260200160002060008473ffffffffffffffffffffffffffffffffffffffff1673ffffffffffffffffffffffffffffffffffffffff168152602001908152602001600020819055508173ffffffffffffffffffffffffffffffffffffffff168373ffffffffffffffffffffffffffffffffffffffff167f8c5be1e5ebec7d5bd14f71427d1e84f3dd0314c0f7b2291e5b200ac8c7c3b92583604051611e129190612304565b60405180910390a3505050565b6000611e2b848461171d565b90507fffffffffffffffffffffffffffffffffffffffffffffffffffffffffffffffff8114611ea55781811015611e97576040517f08c379a0000000000000000000000000000000000000000000000000000000008152600401611e8e906129ef565b60405180910390fd5b611ea48484848403611c56565b5b50505050565b600073ffffffffffffffffffffffffffffffffffffffff168373ffffffffffffffffffffffffffffffffffffffff1603611f1a576040517f08c379a0000000000000000000000000000000000000000000000000000000008152600401611f1190612a81565b60405180910390fd5b600073ffffffffffffffffffffffffffffffffffffffff168273ffffffffffffffffffffffffffffffffffffffff1603611f89576040517f08c379a0000000000000000000000000000000000000000000000000000000008152600401611f8090612b13565b60405180910390fd5b611f94838383612121565b60008060008573ffffffffffffffffffffffffffffffffffffffff1673ffffffffffffffffffffffffffffffffffffffff1681526020019081526020016000205490508181101561201a576040517f08c379a000000000000000000000000000000000000000000000000000000000815260040161201190612ba5565b60405180910390fd5b8181036000808673ffffffffffffffffffffffffffffffffffffffff1673ffffffffffffffffffffffffffffffffffffffff16815260200190815260200160002081905550816000808573ffffffffffffffffffffffffffffffffffffffff1673ffffffffffffffffffffffffffffffffffffffff168152602001908152602001600020600082825401925050819055508273ffffffffffffffffffffffffffffffffffffffff168473ffffffffffffffffffffffffffffffffffffffff167fddf252ad1be2c89b69c2b068fc378daa952ba7f163c4a11628f55a4df523b3ef846040516121089190612304565b60405180910390a361211b848484612126565b50505050565b505050565b505050565b600081519050919050565b600082825260208201905092915050565b60005b8381101561216557808201518184015260208101905061214a565b83811115612174576000848401525b50505050565b6000601f19601f8301169050919050565b60006121968261212b565b6121a08185612136565b93506121b0818560208601612147565b6121b98161217a565b840191505092915050565b600060208201905081810360008301526121de818461218b565b905092915050565b600080fd5b600073ffffffffffffffffffffffffffffffffffffffff82169050919050565b6000612216826121eb565b9050919050565b6122268161220b565b811461223157600080fd5b50565b6000813590506122438161221d565b92915050565b6000819050919050565b61225c81612249565b811461226757600080fd5b50565b60008135905061227981612253565b92915050565b60008060408385031215612296576122956121e6565b5b60006122a485828601612234565b92505060206122b58582860161226a565b9150509250929050565b60008115159050919050565b6122d4816122bf565b82525050565b60006020820190506122ef60008301846122cb565b92915050565b6122fe81612249565b82525050565b600060208201905061231960008301846122f5565b92915050565b6000819050919050565b600061234461233f61233a846121eb565b61231f565b6121eb565b9050919050565b600061235682612329565b9050919050565b60006123688261234b565b9050919050565b6123788161235d565b82525050565b6000602082019050612393600083018461236f565b92915050565b60006123a48261234b565b9050919050565b6123b481612399565b82525050565b60006020820190506123cf60008301846123ab565b92915050565b6000806000606084860312156123ee576123ed6121e6565b5b60006123fc86828701612234565b935050602061240d86828701612234565b925050604061241e8682870161226a565b9150509250925092565b600060ff82169050919050565b61243e81612428565b82525050565b60006020820190506124596000830184612435565b92915050565b600060208284031215612475576124746121e6565b5b600061248384828501612234565b91505092915050565b6124958161220b565b82525050565b60006020820190506124b0600083018461248c565b92915050565b600080604083850312156124cd576124cc6121e6565b5b60006124db85828601612234565b92505060206124ec85828601612234565b9150509250929050565b7f4e487b7100000000000000000000000000000000000000000000000000000000600052602260045260246000fd5b6000600282049050600182168061253d57607f821691505b6020821081036125505761254f6124f6565b5b50919050565b7f4e487b7100000000000000000000000000000000000000000000000000000000600052601160045260246000fd5b600061259082612249565b915061259b83612249565b9250827fffffffffffffffffffffffffffffffffffffffffffffffffffffffffffffffff038211156125d0576125cf612556565b5b828201905092915050565b60006040820190506125f060008301856122f5565b6125fd60208301846122f5565b9392505050565b6000606082019050612619600083018661248c565b612626602083018561248c565b61263360408301846122f5565b949350505050565b612644816122bf565b811461264f57600080fd5b50565b6000815190506126618161263b565b92915050565b60006020828403121561267d5761267c6121e6565b5b600061268b84828501612652565b91505092915050565b600061269f82612249565b91506126aa83612249565b9250828210156126bd576126bc612556565b5b828203905092915050565b6000815190506126d781612253565b92915050565b6000602082840312156126f3576126f26121e6565b5b6000612701848285016126c8565b91505092915050565b7f4e487b7100000000000000000000000000000000000000000000000000000000600052601260045260246000fd5b600061274482612249565b915061274f83612249565b92508261275f5761275e61270a565b5b828204905092915050565b600061277582612249565b915061278083612249565b9250817fffffffffffffffffffffffffffffffffffffffffffffffffffffffffffffffff04831182151516156127b9576127b8612556565b5b828202905092915050565b60006040820190506127d9600083018561248c565b6127e660208301846122f5565b9392505050565b7f45524332303a2064656372656173656420616c6c6f77616e63652062656c6f7760008201527f207a65726f000000000000000000000000000000000000000000000000000000602082015250565b6000612849602583612136565b9150612854826127ed565b604082019050919050565b600060208201905081810360008301526128788161283c565b9050919050565b7f45524332303a20617070726f76652066726f6d20746865207a65726f2061646460008201527f7265737300000000000000000000000000000000000000000000000000000000602082015250565b60006128db602483612136565b91506128e68261287f565b604082019050919050565b6000602082019050818103600083015261290a816128ce565b9050919050565b7f45524332303a20617070726f766520746f20746865207a65726f20616464726560008201527f7373000000000000000000000000000000000000000000000000000000000000602082015250565b600061296d602283612136565b915061297882612911565b604082019050919050565b6000602082019050818103600083015261299c81612960565b9050919050565b7f45524332303a20696e73756666696369656e7420616c6c6f77616e6365000000600082015250565b60006129d9601d83612136565b91506129e4826129a3565b602082019050919050565b60006020820190508181036000830152612a08816129cc565b9050919050565b7f45524332303a207472616e736665722066726f6d20746865207a65726f20616460008201527f6472657373000000000000000000000000000000000000000000000000000000602082015250565b6000612a6b602583612136565b9150612a7682612a0f565b604082019050919050565b60006020820190508181036000830152612a9a81612a5e565b9050919050565b7f45524332303a207472616e7366657220746f20746865207a65726f206164647260008201527f6573730000000000000000000000000000000000000000000000000000000000602082015250565b6000612afd602383612136565b9150612b0882612aa1565b604082019050919050565b60006020820190508181036000830152612b2c81612af0565b9050919050565b7f45524332303a207472616e7366657220616d6f756e742065786365656473206260008201527f616c616e63650000000000000000000000000000000000000000000000000000602082015250565b6000612b8f602683612136565b9150612b9a82612b33565b604082019050919050565b60006020820190508181036000830152612bbe81612b82565b905091905056fea26469706673582212209612063378c904bd51bb97bce23f5a74c55c26be082f762fc4e3adf992257a7264736f6c634300080d0033a26469706673582212202e99f63c5bef2cdd42e732b8bddbd3ca54f55974345e0916e63a4ef88778b7c164736f6c634300080d0033",
    "linkReferences": {}
  },
  "methodIdentifiers": {
    "getVaultAddress(uint256)": "e6bd26a2",
    "hotels(uint256)": "cd338265",
    "isHotelRegistered(uint256)": "8e9d3094",
    "isRegisteredHotel(uint256)": "ee5fd77d",
    "nextHotelId()": "8e4412bb",
    "registerHotel(string,uint256,uint256,uint256,uint256)": "4cf45762",
    "tokenFactory()": "e77772fe",
    "usdcToken()": "11eac855"
  },
  "id": 26
}