{
  "abi": [
    {
      "type": "constructor",
      "inputs": [
        {
          "name": "_usdcToken",
          "type": "address",
          "internalType": "address"
        },
        {
          "name": "_hotelRegistry",
          "type": "address",
          "internalType": "address"
        }
      ],
      "stateMutability": "nonpayable"
    },
    {
      "type": "function",
      "name": "buyLaLoTokens",
      "inputs": [
        {
          "name": "_hotelId",
          "type": "uint256",
          "internalType": "uint256"
        },
        {
          "name": "_buyInUSDC",
          "type": "uint256",
          "internalType": "uint256"
        }
      ],
      "outputs": [],
      "stateMutability": "nonpayable"
    },
    {
      "type": "function",
      "name": "getAuctionEndDate",
      "inputs": [
        {
          "name": "_hotelId",
          "type": "uint256",
          "internalType": "uint256"
        }
      ],
      "outputs": [
        {
          "name": "",
          "type": "uint256",
          "internalType": "uint256"
        }
      ],
      "stateMutability": "view"
    },
    {
      "type": "function",
      "name": "getAvailableRevenues",
      "inputs": [
        {
          "name": "_hotelId",
          "type": "uint256",
          "internalType": "uint256"
        }
      ],
      "outputs": [
        {
          "name": "",
          "type": "uint256",
          "internalType": "uint256"
        }
      ],
      "stateMutability": "view"
    },
    {
      "type": "function",
      "name": "getAvailableTokens",
      "inputs": [
        {
          "name": "_hotelId",
          "type": "uint256",
          "internalType": "uint256"
        }
      ],
      "outputs": [
        {
          "name": "",
          "type": "uint256",
          "internalType": "uint256"
        }
      ],
      "stateMutability": "view"
    },
    {
      "type": "function",
      "name": "getCollectedRevenues",
      "inputs": [
        {
          "name": "_hotelId",
          "type": "uint256",
          "internalType": "uint256"
        }
      ],
      "outputs": [
        {
          "name": "usdcs",
          "type": "uint256",
          "internalType": "uint256"
        }
      ],
      "stateMutability": "view"
    },
    {
      "type": "function",
      "name": "getCurrentTokens",
      "inputs": [
        {
          "name": "_hotelId",
          "type": "uint256",
          "internalType": "uint256"
        }
      ],
      "outputs": [
        {
          "name": "lloTokens",
          "type": "uint256",
          "internalType": "uint256"
        }
      ],
      "stateMutability": "view"
    },
    {
      "type": "function",
      "name": "getMonthTest",
      "inputs": [
        {
          "name": "_hotelId",
          "type": "uint256",
          "internalType": "uint256"
        }
      ],
      "outputs": [
        {
          "name": "month",
          "type": "uint256",
          "internalType": "uint256"
        }
      ],
      "stateMutability": "view"
    },
    {
      "type": "function",
      "name": "getRate",
      "inputs": [
        {
          "name": "_hotelId",
          "type": "uint256",
          "internalType": "uint256"
        }
      ],
      "outputs": [
        {
          "name": "",
          "type": "uint256",
          "internalType": "uint256"
        }
      ],
      "stateMutability": "view"
    },
    {
      "type": "function",
      "name": "getRemainingPromisedRevenues",
      "inputs": [
        {
          "name": "_hotelId",
          "type": "uint256",
          "internalType": "uint256"
        }
      ],
      "outputs": [
        {
          "name": "remainingRevs",
          "type": "uint256",
          "internalType": "uint256"
        }
      ],
      "stateMutability": "view"
    },
    {
      "type": "function",
      "name": "getTransferLimit",
      "inputs": [
        {
          "name": "_hotelId",
          "type": "uint256",
          "internalType": "uint256"
        }
      ],
      "outputs": [
        {
          "name": "limit",
          "type": "uint256",
          "internalType": "uint256"
        }
      ],
      "stateMutability": "view"
    },
    {
      "type": "function",
      "name": "getVaultAddress",
      "inputs": [
        {
          "name": "_hotelId",
          "type": "uint256",
          "internalType": "uint256"
        }
      ],
      "outputs": [
        {
          "name": "vaultAddress",
          "type": "address",
          "internalType": "address"
        }
      ],
      "stateMutability": "view"
    },
    {
      "type": "function",
      "name": "hotelRegistry",
      "inputs": [],
      "outputs": [
        {
          "name": "",
          "type": "address",
          "internalType": "contract LaLoHotelRegistry"
        }
      ],
      "stateMutability": "view"
    },
    {
      "type": "function",
      "name": "ownerDepositUSDC",
      "inputs": [
        {
          "name": "_hotelId",
          "type": "uint256",
          "internalType": "uint256"
        },
        {
          "name": "_depositInUSDC",
          "type": "uint256",
          "internalType": "uint256"
        }
      ],
      "outputs": [],
      "stateMutability": "nonpayable"
    },
    {
      "type": "function",
      "name": "setMonthTest",
      "inputs": [
        {
          "name": "_hotelId",
          "type": "uint256",
          "internalType": "uint256"
        },
        {
          "name": "_month",
          "type": "uint256",
          "internalType": "uint256"
        }
      ],
      "outputs": [],
      "stateMutability": "nonpayable"
    },
    {
      "type": "function",
      "name": "usdcToken",
      "inputs": [],
      "outputs": [
        {
          "name": "",
          "type": "address",
          "internalType": "contract IERC20"
        }
      ],
      "stateMutability": "view"
    },
    {
      "type": "function",
      "name": "withdrawUSDC",
      "inputs": [
        {
          "name": "_hotelId",
          "type": "uint256",
          "internalType": "uint256"
        },
        {
          "name": "_withdrawInUSDC",
          "type": "uint256",
          "internalType": "uint256"
        }
      ],
      "outputs": [],
      "stateMutability": "nonpayable"
    },
    {
      "type": "event",
      "name": "TokensBought",
      "inputs": [
        {
          "name": "hotelId",
          "type": "uint256",
          "indexed": true,
          "internalType": "uint256"
        },
        {
          "name": "buyer",
          "type": "address",
          "indexed": true,
          "internalType": "address"
        },
        {
          "name": "amount",
          "type": "uint256",
          "indexed": false,
          "internalType": "uint256"
        }
      ],
      "anonymous": false
    },
    {
      "type": "event",
      "name": "USDCDeposit",
      "inputs": [
        {
          "name": "hotelId",
          "type": "uint256",
          "indexed": true,
          "internalType": "uint256"
        },
        {
          "name": "user",
          "type": "address",
          "indexed": true,
          "internalType": "address"
        },
        {
          "name": "amount",
          "type": "uint256",
          "indexed": false,
          "internalType": "uint256"
        }
      ],
      "anonymous": false
    },
    {
      "type": "event",
      "name": "USDCWithdrawn",
      "inputs": [
        {
          "name": "hotelId",
          "type": "uint256",
          "indexed": true,
          "internalType": "uint256"
        },
        {
          "name": "user",
          "type": "address",
          "indexed": true,
          "internalType": "address"
        },
        {
          "name": "shares",
          "type": "uint256",
          "indexed": false,
          "internalType": "uint256"
        }
      ],
      "anonymous": false
    },
    {
      "type": "error",
      "name": "HotelNotRegistered",
      "inputs": []
    },
    {
      "type": "error",
      "name": "InsufficientSharesToWithdraw",
      "inputs": []
    },
    {
      "type": "error",
      "name": "LLOTTransferFailed",
      "inputs": []
    }
  ],
  "bytecode": {
    "object": "0x60806040523480156200001157600080fd5b5060405162001c3a38038062001c3a83398181016040528101906200003791906200012a565b816000806101000a81548173ffffffffffffffffffffffffffffffffffffffff021916908373ffffffffffffffffffffffffffffffffffffffff16021790555080600160006101000a81548173ffffffffffffffffffffffffffffffffffffffff021916908373ffffffffffffffffffffffffffffffffffffffff160217905550505062000171565b600080fd5b600073ffffffffffffffffffffffffffffffffffffffff82169050919050565b6000620000f282620000c5565b9050919050565b6200010481620000e5565b81146200011057600080fd5b50565b6000815190506200012481620000f9565b92915050565b60008060408385031215620001445762000143620000c0565b5b6000620001548582860162000113565b9250506020620001678582860162000113565b9150509250929050565b611ab980620001816000396000f3fe608060405234801561001057600080fd5b50600436106101005760003560e01c806364a23efe11610097578063a65699f111610066578063a65699f1146102e5578063c561085414610301578063e005e77b14610331578063e6bd26a21461036157610100565b806364a23efe1461024d57806388e086651461027d5780638d591f91146102995780639187cb03146102b557610100565b806334a30cbb116100d357806334a30cbb1461018d578063380ccbc6146101bd57806346cd5929146101ed578063577640941461021d57610100565b806311eac8551461010557806314ba9c78146101235780631aa1e685146101415780632d6494971461015d575b600080fd5b61010d610391565b60405161011a9190611770565b60405180910390f35b61012b6103b5565b60405161013891906117ac565b60405180910390f35b61015b60048036038101906101569190611802565b6103db565b005b61017760048036038101906101729190611842565b6104f3565b604051610184919061187e565b60405180910390f35b6101a760048036038101906101a29190611842565b61061c565b6040516101b4919061187e565b60405180910390f35b6101d760048036038101906101d29190611842565b6107b3565b6040516101e4919061187e565b60405180910390f35b61020760048036038101906102029190611842565b6108d1565b604051610214919061187e565b60405180910390f35b61023760048036038101906102329190611842565b6109fa565b604051610244919061187e565b60405180910390f35b61026760048036038101906102629190611842565b610b18565b604051610274919061187e565b60405180910390f35b61029760048036038101906102929190611802565b610c36565b005b6102b360048036038101906102ae9190611802565b610e71565b005b6102cf60048036038101906102ca9190611842565b6110ac565b6040516102dc919061187e565b60405180910390f35b6102ff60048036038101906102fa9190611802565b6111ca565b005b61031b60048036038101906103169190611842565b611405565b604051610328919061187e565b60405180910390f35b61034b60048036038101906103469190611842565b611523565b604051610358919061187e565b60405180910390f35b61037b60048036038101906103769190611842565b61164c565b60405161038891906118ba565b60405180910390f35b60008054906101000a900473ffffffffffffffffffffffffffffffffffffffff1681565b600160009054906101000a900473ffffffffffffffffffffffffffffffffffffffff1681565b6000600160009054906101000a900473ffffffffffffffffffffffffffffffffffffffff1673ffffffffffffffffffffffffffffffffffffffff1663e6bd26a2846040518263ffffffff1660e01b8152600401610438919061187e565b602060405180830381865afa158015610455573d6000803e3d6000fd5b505050506040513d601f19601f820116820180604052508101906104799190611901565b905060008190508073ffffffffffffffffffffffffffffffffffffffff1663e6c6f12c33856040518363ffffffff1660e01b81526004016104bb92919061192e565b600060405180830381600087803b1580156104d557600080fd5b505af11580156104e9573d6000803e3d6000fd5b5050505050505050565b600080600160009054906101000a900473ffffffffffffffffffffffffffffffffffffffff1673ffffffffffffffffffffffffffffffffffffffff1663e6bd26a2846040518263ffffffff1660e01b8152600401610551919061187e565b602060405180830381865afa15801561056e573d6000803e3d6000fd5b505050506040513d601f19601f820116820180604052508101906105929190611901565b905060008190508073ffffffffffffffffffffffffffffffffffffffff16635f515226336040518263ffffffff1660e01b81526004016105d291906118ba565b602060405180830381865afa1580156105ef573d6000803e3d6000fd5b505050506040513d601f19601f82011682018060405250810190610613919061196c565b92505050919050565b600080600160009054906101000a900473ffffffffffffffffffffffffffffffffffffffff1673ffffffffffffffffffffffffffffffffffffffff1663e6bd26a2846040518263ffffffff1660e01b815260040161067a919061187e565b602060405180830381865afa158015610697573d6000803e3d6000fd5b505050506040513d601f19601f820116820180604052508101906106bb9190611901565b905060008190508073ffffffffffffffffffffffffffffffffffffffff16630cbf54c86040518163ffffffff1660e01b8152600401602060405180830381865afa15801561070d573d6000803e3d6000fd5b505050506040513d601f19601f82011682018060405250810190610731919061196c565b8173ffffffffffffffffffffffffffffffffffffffff1663b30930cc6040518163ffffffff1660e01b8152600401602060405180830381865afa15801561077c573d6000803e3d6000fd5b505050506040513d601f19601f820116820180604052508101906107a0919061196c565b6107aa91906119c8565b92505050919050565b600080600160009054906101000a900473ffffffffffffffffffffffffffffffffffffffff1673ffffffffffffffffffffffffffffffffffffffff1663e6bd26a2846040518263ffffffff1660e01b8152600401610811919061187e565b602060405180830381865afa15801561082e573d6000803e3d6000fd5b505050506040513d601f19601f820116820180604052508101906108529190611901565b905060008190508073ffffffffffffffffffffffffffffffffffffffff1663578dae4f6040518163ffffffff1660e01b8152600401602060405180830381865afa1580156108a4573d6000803e3d6000fd5b505050506040513d601f19601f820116820180604052508101906108c8919061196c565b92505050919050565b600080600160009054906101000a900473ffffffffffffffffffffffffffffffffffffffff1673ffffffffffffffffffffffffffffffffffffffff1663e6bd26a2846040518263ffffffff1660e01b815260040161092f919061187e565b602060405180830381865afa15801561094c573d6000803e3d6000fd5b505050506040513d601f19601f820116820180604052508101906109709190611901565b905060008190508073ffffffffffffffffffffffffffffffffffffffff16635edf9e61336040518263ffffffff1660e01b81526004016109b091906118ba565b602060405180830381865afa1580156109cd573d6000803e3d6000fd5b505050506040513d601f19601f820116820180604052508101906109f1919061196c565b92505050919050565b600080600160009054906101000a900473ffffffffffffffffffffffffffffffffffffffff1673ffffffffffffffffffffffffffffffffffffffff1663e6bd26a2846040518263ffffffff1660e01b8152600401610a58919061187e565b602060405180830381865afa158015610a75573d6000803e3d6000fd5b505050506040513d601f19601f82011682018060405250810190610a999190611901565b905060008190508073ffffffffffffffffffffffffffffffffffffffff16632c4e722e6040518163ffffffff1660e01b8152600401602060405180830381865afa158015610aeb573d6000803e3d6000fd5b505050506040513d601f19601f82011682018060405250810190610b0f919061196c565b92505050919050565b600080600160009054906101000a900473ffffffffffffffffffffffffffffffffffffffff1673ffffffffffffffffffffffffffffffffffffffff1663e6bd26a2846040518263ffffffff1660e01b8152600401610b76919061187e565b602060405180830381865afa158015610b93573d6000803e3d6000fd5b505050506040513d601f19601f82011682018060405250810190610bb79190611901565b905060008190508073ffffffffffffffffffffffffffffffffffffffff16639b4f19c66040518163ffffffff1660e01b8152600401602060405180830381865afa158015610c09573d6000803e3d6000fd5b505050506040513d601f19601f82011682018060405250810190610c2d919061196c565b92505050919050565b81600160009054906101000a900473ffffffffffffffffffffffffffffffffffffffff1673ffffffffffffffffffffffffffffffffffffffff16638e9d3094826040518263ffffffff1660e01b8152600401610c92919061187e565b602060405180830381865afa158015610caf573d6000803e3d6000fd5b505050506040513d601f19601f82011682018060405250810190610cd39190611a56565b610d09576040517f27b041fd00000000000000000000000000000000000000000000000000000000815260040160405180910390fd5b6000600160009054906101000a900473ffffffffffffffffffffffffffffffffffffffff1673ffffffffffffffffffffffffffffffffffffffff1663e6bd26a2856040518263ffffffff1660e01b8152600401610d66919061187e565b602060405180830381865afa158015610d83573d6000803e3d6000fd5b505050506040513d601f19601f82011682018060405250810190610da79190611901565b905060008190508073ffffffffffffffffffffffffffffffffffffffff1663f3fef3a333866040518363ffffffff1660e01b8152600401610de992919061192e565b600060405180830381600087803b158015610e0357600080fd5b505af1158015610e17573d6000803e3d6000fd5b505050503373ffffffffffffffffffffffffffffffffffffffff16857fc97cf3039f594c8da814b88e53e8c8d9c46d4535a2670d2ba5f71959adf2760586604051610e62919061187e565b60405180910390a35050505050565b81600160009054906101000a900473ffffffffffffffffffffffffffffffffffffffff1673ffffffffffffffffffffffffffffffffffffffff16638e9d3094826040518263ffffffff1660e01b8152600401610ecd919061187e565b602060405180830381865afa158015610eea573d6000803e3d6000fd5b505050506040513d601f19601f82011682018060405250810190610f0e9190611a56565b610f44576040517f27b041fd00000000000000000000000000000000000000000000000000000000815260040160405180910390fd5b6000600160009054906101000a900473ffffffffffffffffffffffffffffffffffffffff1673ffffffffffffffffffffffffffffffffffffffff1663e6bd26a2856040518263ffffffff1660e01b8152600401610fa1919061187e565b602060405180830381865afa158015610fbe573d6000803e3d6000fd5b505050506040513d601f19601f82011682018060405250810190610fe29190611901565b905060008190508073ffffffffffffffffffffffffffffffffffffffff166347e7ef2433866040518363ffffffff1660e01b815260040161102492919061192e565b600060405180830381600087803b15801561103e57600080fd5b505af1158015611052573d6000803e3d6000fd5b505050503373ffffffffffffffffffffffffffffffffffffffff16857fc97cf3039f594c8da814b88e53e8c8d9c46d4535a2670d2ba5f71959adf276058660405161109d919061187e565b60405180910390a35050505050565b600080600160009054906101000a900473ffffffffffffffffffffffffffffffffffffffff1673ffffffffffffffffffffffffffffffffffffffff1663e6bd26a2846040518263ffffffff1660e01b815260040161110a919061187e565b602060405180830381865afa158015611127573d6000803e3d6000fd5b505050506040513d601f19601f8201168201806040525081019061114b9190611901565b905060008190508073ffffffffffffffffffffffffffffffffffffffff1663e35568cb6040518163ffffffff1660e01b8152600401602060405180830381865afa15801561119d573d6000803e3d6000fd5b505050506040513d601f19601f820116820180604052508101906111c1919061196c565b92505050919050565b81600160009054906101000a900473ffffffffffffffffffffffffffffffffffffffff1673ffffffffffffffffffffffffffffffffffffffff16638e9d3094826040518263ffffffff1660e01b8152600401611226919061187e565b602060405180830381865afa158015611243573d6000803e3d6000fd5b505050506040513d601f19601f820116820180604052508101906112679190611a56565b61129d576040517f27b041fd00000000000000000000000000000000000000000000000000000000815260040160405180910390fd5b6000600160009054906101000a900473ffffffffffffffffffffffffffffffffffffffff1673ffffffffffffffffffffffffffffffffffffffff1663e6bd26a2856040518263ffffffff1660e01b81526004016112fa919061187e565b602060405180830381865afa158015611317573d6000803e3d6000fd5b505050506040513d601f19601f8201168201806040525081019061133b9190611901565b905060008190508073ffffffffffffffffffffffffffffffffffffffff16636945b12333866040518363ffffffff1660e01b815260040161137d92919061192e565b600060405180830381600087803b15801561139757600080fd5b505af11580156113ab573d6000803e3d6000fd5b505050503373ffffffffffffffffffffffffffffffffffffffff16857fe6097132eb453030fc61413d25e83714650c696033355fb29680d060df389c65866040516113f6919061187e565b60405180910390a35050505050565b600080600160009054906101000a900473ffffffffffffffffffffffffffffffffffffffff1673ffffffffffffffffffffffffffffffffffffffff1663e6bd26a2846040518263ffffffff1660e01b8152600401611463919061187e565b602060405180830381865afa158015611480573d6000803e3d6000fd5b505050506040513d601f19601f820116820180604052508101906114a49190611901565b905060008190508073ffffffffffffffffffffffffffffffffffffffff1663e0b669c66040518163ffffffff1660e01b8152600401602060405180830381865afa1580156114f6573d6000803e3d6000fd5b505050506040513d601f19601f8201168201806040525081019061151a919061196c565b92505050919050565b600080600160009054906101000a900473ffffffffffffffffffffffffffffffffffffffff1673ffffffffffffffffffffffffffffffffffffffff1663e6bd26a2846040518263ffffffff1660e01b8152600401611581919061187e565b602060405180830381865afa15801561159e573d6000803e3d6000fd5b505050506040513d601f19601f820116820180604052508101906115c29190611901565b905060008190508073ffffffffffffffffffffffffffffffffffffffff16633f795cc0336040518263ffffffff1660e01b815260040161160291906118ba565b602060405180830381865afa15801561161f573d6000803e3d6000fd5b505050506040513d601f19601f82011682018060405250810190611643919061196c565b92505050919050565b6000600160009054906101000a900473ffffffffffffffffffffffffffffffffffffffff1673ffffffffffffffffffffffffffffffffffffffff1663e6bd26a2836040518263ffffffff1660e01b81526004016116a9919061187e565b602060405180830381865afa1580156116c6573d6000803e3d6000fd5b505050506040513d601f19601f820116820180604052508101906116ea9190611901565b9050919050565b600073ffffffffffffffffffffffffffffffffffffffff82169050919050565b6000819050919050565b600061173661173161172c846116f1565b611711565b6116f1565b9050919050565b60006117488261171b565b9050919050565b600061175a8261173d565b9050919050565b61176a8161174f565b82525050565b60006020820190506117856000830184611761565b92915050565b60006117968261173d565b9050919050565b6117a68161178b565b82525050565b60006020820190506117c1600083018461179d565b92915050565b600080fd5b6000819050919050565b6117df816117cc565b81146117ea57600080fd5b50565b6000813590506117fc816117d6565b92915050565b60008060408385031215611819576118186117c7565b5b6000611827858286016117ed565b9250506020611838858286016117ed565b9150509250929050565b600060208284031215611858576118576117c7565b5b6000611866848285016117ed565b91505092915050565b611878816117cc565b82525050565b6000602082019050611893600083018461186f565b92915050565b60006118a4826116f1565b9050919050565b6118b481611899565b82525050565b60006020820190506118cf60008301846118ab565b92915050565b6118de81611899565b81146118e957600080fd5b50565b6000815190506118fb816118d5565b92915050565b600060208284031215611917576119166117c7565b5b6000611925848285016118ec565b91505092915050565b600060408201905061194360008301856118ab565b611950602083018461186f565b9392505050565b600081519050611966816117d6565b92915050565b600060208284031215611982576119816117c7565b5b600061199084828501611957565b91505092915050565b7f4e487b7100000000000000000000000000000000000000000000000000000000600052601160045260246000fd5b60006119d3826117cc565b91506119de836117cc565b9250827fffffffffffffffffffffffffffffffffffffffffffffffffffffffffffffffff03821115611a1357611a12611999565b5b828201905092915050565b60008115159050919050565b611a3381611a1e565b8114611a3e57600080fd5b50565b600081519050611a5081611a2a565b92915050565b600060208284031215611a6c57611a6b6117c7565b5b6000611a7a84828501611a41565b9150509291505056fea26469706673582212205ef9db6135609994559e5cbf8ec13d25413ea3d96c60e2d05e8ca1b2fd99ecc964736f6c634300080d0033",
    "linkReferences": {}
  },
  "methodIdentifiers": {
    "buyLaLoTokens(uint256,uint256)": "a65699f1",
    "getAuctionEndDate(uint256)": "34a30cbb",
    "getAvailableRevenues(uint256)": "380ccbc6",
    "getAvailableTokens(uint256)": "9187cb03",
    "getCollectedRevenues(uint256)": "e005e77b",
    "getCurrentTokens(uint256)": "2d649497",
    "getMonthTest(uint256)": "64a23efe",
    "getRate(uint256)": "57764094",
    "getRemainingPromisedRevenues(uint256)": "c5610854",
    "getTransferLimit(uint256)": "46cd5929",
    "getVaultAddress(uint256)": "e6bd26a2",
    "hotelRegistry()": "14ba9c78",
    "ownerDepositUSDC(uint256,uint256)": "8d591f91",
    "setMonthTest(uint256,uint256)": "1aa1e685",
    "usdcToken()": "11eac855",
    "withdrawUSDC(uint256,uint256)": "88e08665"
  },
  "id": 29
}